:1000000000800020BD010000912A0000492A000064
:10001000492A0000492A0000492A0000492A000014
:10002000492A0000492A0000492A0000912A0000BC
:10003000912A0000492A0000E5410000E942000041
:10004000912A0000912A0000912A0000912A0000C4
:10005000912A0000912A0000912A0000912A0000B4
:10006000912A0000912A0000912A0000912A0000A4
:10007000912A0000912A0000912A0000912A000094
:10008000912A0000912A0000912A0000912A000084
:10009000912A0000912A0000912A0000912A000074
:1000A000610E00006D0E0000912A0000912A0000F0
:1000B000912A0000912A0000912A0000912A000054
:1000C000912A0000912A0000912A0000912A000044
:1000D000912A0000912A0000912A0000912A000034
:1000E000912A0000912A0000912A0000912A000024
:1000F000912A00006D470000912A000099480000F5
:10010000912A00008D2F0000912A0000912A000002
:10011000912A0000912A0000912A0000912A0000F3
:10012000912A0000912A0000912A0000912A0000E3
:10013000912A0000912A0000912A0000912A0000D3
:10014000912A0000912A0000912A0000912A0000C3
:10015000912A0000912A0000912A0000912A0000B3
:10016000912A000019320000912A0000912A000013
:10017000912A0000912A0000912A0000912A000093
:10018000912A0000912A0000912A0000912A000083
:10019000912A0000912A0000912A0000912A000073
:1001A000912A0000912A0000912A0000912A000063
:1001B000912A0000912A0000912A0000564B4CF22F
:1001C000205210B51A804DF628121A8000BF00BFC9
:1001D00002F062FC514B4FF010621A60504A9A6074
:1001E000504ADA60504A136813F4807304D14F49BF
:1001F0000B604FF4A85313604D4B1A78110703D5C9
:100200001A7842F008021A704A4B4B492A221A7097
:100210004A4A4B4B8B4204D252F8040F43F8040B6A
:10022000F8E7484B484900228B4202D243F8042B9E
:10023000FAE74649464A002352F8230041F82300D2
:1002400001336F2BF8D1434B434A802103F8011B44
:100250009342FBD1414B3D4A1A60414B8A221A70AE
:10026000A3F5805324225A70A0221A709A7992071B
:10027000FCD59A79D406FCD43A4A937903F00C035E
:10028000082B384BF9D103221A7140225A719A79FE
:100290009006FCD5334A9179324B4906FBD5324A58
:1002A000324911600221516020221A709A7902F0BD
:1002B0000C020C2AFAD12E4B2E4A1A602E4B2F4AD2
:1002C0001A6000225A60072243F8042C2C4AC3F813
:1002D0000C2D62B602F08AFD144B1B68DA0705D5B7
:1002E000284802F017FD284B284A1A60284B1B7833
:1002F0005B0609D5244C254B22689A4204D121483B
:1003000002F008FD0023236005F0D0FA02F0CAFBDA
:1003100003F0F2FFFEE700BF0E20054030800440EE
:10032000823F04000100002B10D0034014D0034092
:1003300002D0074000E00740EC92FF1F7466000007
:100340002087FF1FF092FF1F3899FF1F0082FF1FB9
:100350000000000000E400E05FE400E008ED00E0E1
:100360000050064000400640448004400000030165
:1003700004800440C010050014E000E0FF76010096
:1003800000002020AD13C45D1CE00340A5C3945AB7
:1003900000F00740FFFFFFFFFFFFFFFFFFFFFFFF32
:1003A000FFFFFFFFFFFFFFFFFFFFFFFFFFFFFFFF5D
:1003B000FFFFFFFFFFFFFFFFFFFFFFFFFFFFFFFF4D
:1003C000FFFFFFFFFFFFFFFFFFFFFFFFFFFFFFFF3D
:1003D000FFFFFFFFFFFFFFFFFFFFFFFFFFFFFFFF2D
:1003E000FFFFFFFFFFFFFFFFFFFFFFFFFFFFFFFF1D
:1003F000FFFFFFFFFFFFFFFFFFFFFFFFFFFFFFFF0D
:10040000FFFFFFFFFFFFFFFFFFFFFFFFDEF9FFFF23
:1004100010B5054C237833B9044B13B10448AFF33E
:1004200000800123237010BDF092FF1F0000000028
:1004300078660000084B10B51BB108490848AFF3B7
:1004400000800848036803B910BD074B002BFBD0A0
:10045000BDE81040184700BF00000000F492FF1FE5
:1004600078660000EC92FF1F0000000008B540F61F
:10047000B831364802F074F94FF4E131334802F0F4
:100480006BF90121314802F041F9002851D10122D4
:1004900000212E4802F010FA2D4800F09DF92D4859
:1004A00000F0DEFE42F2107002F010FD13212A4827
:1004B00003F032FD294803F027FF03E04FF47A7080
:1004C00002F046FC264800F01FFD0028F6D1254B1F
:1004D000254A26481A600E2103F01EFD1F4803F02E
:1004E00013FF03E04FF47A7002F032FC204800F072
:1004F0009DF80028F6D10D211E4803F00DFD174888
:1005000003F002FF01E002F023FC1B4801F01CFE97
:1005100000284FF47A70F6DB0E21184803F0FCFC3B
:100520000E4803F0F1FE0A491548BDE8084002F004
:1005300097B81021134803F0EFFC0A21034802F09A
:10054000D3F8024802F006F9A1E700BFF895FF1FB3
:10055000FC87FF1FD488FF1F14620000F489FF1F6F
:10056000DC95FF1FF494FF1F49E8D40028620000C7
:10057000E094FF1F386200001093FF1F48620000E4
:10058000E095FF1F0062000070B5134E134C82B05F
:10059000304602F083F804F0B1FB022502460B4618
:1005A0000095204603F000FF204603F0ADFE3046E4
:1005B00002F08AF804F0A2FB009502460B462046A2
:1005C00003F0F2FE204603F09FFE4FF4FA7002B0F3
:1005D000BDE8704002F0BCBBE095FF1FF489FF1F2F
:1005E00008B577210A4800F01FF80A21094800F0F1
:1005F00043FC09490948682200F09AFE084801F0C6
:1006000071FF40210748BDE8084002F021B800BF53
:10061000E094FF1FDC95FF1FFC87FF1F1093FF1F57
:10062000F894FF1FE095FF1F016070472DE9F84324
:100630000368394E01275B001E218046304686F84C
:100640003B3086F85E7086F85D7000F0B1F8394690
:10065000304600F06DFA002852D10546052002F020
:1006600077FB08F1040934460135D8F800302A48F0
:1006700086F85E70690041F0A0015B0001F0FE01A8
:1006800086F83B3086F85D7000F092F80121224830
:1006900000F04EFA0123022298F800101E4800F0E4
:1006A000D1FA10B394F8383094F839105A1CD2B2F9
:1006B0008B4204EB030E04EB020003F1020311D2A0
:1006C000914284F838209EF818E00BD9027E84F815
:1006D000383042EA0E23062D29F8023FC4D100200B
:1006E000BDE8F8834FF6FF73F5E710210B4803F0E0
:1006F00013FC0B4803F008FE4FF0FF30BDE8F88311
:100700001321084803F008FC054803F0FDFD4FF0F5
:10071000FF30BDE8F88300BFFC87FF1F6C6200005C
:10072000F489FF1F586200000020704790F83920BC
:1007300090F83800101A704790F8383090F8392047
:100740009A4205D95A1C034480F83820187E704715
:100750004FF0FF30704700BF90F8383090F83920E4
:100760009A4286BF1B18187E4FF0FF30704700BFBB
:10077000704700BF38B50546B0F85E0090B195F8F7
:100780005D301446C3F1210294420CD805F13B00C0
:100790001844224602F0BEF895F85D30234485F8EF
:1007A0005D30204638BD012014462871EEE700BFB9
:1007B000B0F85E306BB190F85D30202B07D8C218CE
:1007C000013380F85D30012082F83B10704701232F
:1007D00003710020704700BF0023426980F8383061
:1007E00080F8393080F85C3080F85D3080F85E3019
:1007F00080F85F3006CA30B40D68046943662A4346
:1008000083660A60A370426990F8613016491468E3
:1008100013441D7A5B7B01EBC5051B026D6803F475
:10082000E06343F064032B6090F8623013449D7CD6
:10083000DB7D01EBC5011B02496803F4E06343F073
:1008400064030B6021685368194205D003692722AD
:100850005A70036904229A71036920225A7103694C
:1008600080229A7030BC7047B464000043690CCB9E
:1008700012681A420CD0094B99420AD9084B994286
:10088000036994BF1A220D225A70036904229A71D7
:100890007047036927225A70F7E700BF7F1A0600E6
:1008A0003F420F0010B50269D378DBB2D906044687
:1008B0003DD510215806D17038D503F0040303F05C
:1008C000FF02002B51D03D49626E00230B7084F86B
:1008D0005D30002A5BD0904794F85D30002B56D0F5
:1008E0002369D0229A70236994F83B201A712369F6
:1008F000012284F85C200222DA7010BD304B84F8AB
:1009000060009C424AD02F4B9C4252D094F8391040
:1009100013791F29DBB207D82848007820B1601866
:10092000013184F8391003760223D37010BD5906C3
:10093000C3D4917801F0100101F0FF000029DDD04F
:1009400013F001031ED194F85C1094F85D00884206
:1009500081BF4B1C091984F85C3091F83B3013714E
:100960002369D0229A702269DEE7236984F839204E
:10097000C0229A702369114A19790121117002224B
:10098000DA7010BDC023937022691379CCE701227D
:10099000002384F85D2084F83B30A1E7626994F875
:1009A0006130094913440322187A02F0F3F82269EE
:1009B000ACE7626994F861300449F3E7F495FF1FEE
:1009C000FC87FF1F6888FF1F2D0A0000390A0000FE
:1009D0000369DB7803F0200373B190F860300133D2
:1009E000DBB2012B80F860301AD9426990F861308F
:1009F0001344187A02F04AB970B5426903F0FF0552
:100A000090F8613013440446187A02F03FF9A36E5F
:100A10005BB184F8385094F83900BDE8704018474D
:100A200090F85F30002BE0D0704770BD0148FFF7B1
:100A3000CFBF00BFFC87FF1F0148FFF7C9BF00BF42
:100A40006888FF1F2DE9F047374FDFF8E0903B68DB
:100A5000026982B006460093DDF800800021A025DF
:100A6000D3789B065BD53B680193019BC8EB0303DE
:100A70000F2BF5D949B1102BF2D0002090703369BB
:100A800080229A7002B0BDE8F087726996F86130F2
:100A900013440521187A02F055F9726996F861300D
:100AA0001344012193F812A0504602F04BF9092497
:100AB0000021504602F040F92B46013BFDD10121B7
:100AC000504602F039F92B46013BFDD1013CEFD1F4
:100AD000706996F8611001444FF4A0720C7A4B7B58
:100AE00009EBC4011B02496803F4E06343F06403AB
:100AF0000B6096F862300344997CDB7D09EBC10101
:100B00001B02496803F4E06343F064030B60013A9D
:100B1000FDD13269D3789B064FF00101A3D40120A7
:100B200002B0BDE8F08700BF4096FF1FB46400002C
:100B3000F0B503691222DA700269937803F020039A
:100B400085B004460D46002B5ED0B42393703C491B
:100B500022690B680093009E05E00B680193019BDE
:100B60009B1B042B42D8D37803F0200303F0FF0033
:100B7000002BF2D094F85D30002B31D04FF0000EF6
:100B80004FF0020C04EB0E0393F83B3013710B682B
:100B90000393039F206907E09B060DD50B68029322
:100BA000029BDB1B052B28D8C378DBB203F00202C3
:100BB00002F0FF06002AEFD080F803C02669F37820
:100BC000DBB2DF0632462DD49F062BD5DB0731D4AE
:100BD0000EF1010E94F85D305FFA8EFE7345D1D8A8
:100BE00000201DBB002384F85E3004E09070236970
:100BF00080229A70042005B0F0BD8670236980229F
:100C000004209A7005B0F0BD03F0FF06FFF71AFF4D
:100C100010B9042005B0F0BD236984F85F60B022EC
:100C20009A7094E78023B3700420DAE72669802362
:100C3000B370D7E7BEF1000F0CBF02200320F6E728
:100C40004096FF1F2DE9F04106690025122780F824
:100C5000385080F83950F770D0F810C09CF802E096
:100C60000EF0200E88B00446884615461E46BEF19A
:100C7000000F49D0B4238CF80230784B21691A68F0
:100C80000092DDF800E006E01A6801920198CEEBD0
:100C90000000042830D8C87800F0200000F0FF07DA
:100CA0000028F1D04FEA480242F00102D2B20A71A4
:100CB0001A680292DDF808E0206906E01A680392DB
:100CC0000399CEEB010105292AD8C17801F0020170
:100CD00001F0FF070029F1D04FF0020C80F803C0AB
:100CE0002269D17811F0110722D12DBB002E0CBF43
:100CF000A0238023937003E08F70236980229A7071
:100D0000384608B0BDE8F0810EF0FF07FFF79AFE05
:100D10000028F5D0236984F85F70B0229A70ACE7A0
:100D200087702369802238469A7008B0BDE8F08148
:100D3000802393700027E3E7012D75D0A0219170E7
:100D400021690A79BE4667464FF0A80C1A680492DA
:100D5000049805E01A680592059A121A052A4AD8DD
:100D6000CA7802F0020202F0FF08002AF2D0CF7027
:100D70002169CA78D2B212F0100F08465AD19206F1
:100D800058D5013DEDB2012D49D0BEF11F0F3BD921
:100D90000A79012DDAD11A680692069D05E01A68D3
:100DA0000792079A521B052A46D8C27802F002021F
:100DB00002F0FF01002AF2D00223C3702269D37827
:100DC000DBB2D9063AD49B0634D5B023BEF11F0F4F
:100DD00093703FD8226904EB0E0312791A760EF154
:100DE000010E5FFA8EFE16B1236980229A7084F894
:100DF00039E0774684E781F80280236980229A707F
:100E0000774684F839E07BE704EB0E0291F8048022
:100E100082F818800EF1010E5FFA8EFEB9E781F8B4
:100E200002C021690846B0E7A82191702069BE463A
:100E30000279B0E7774663E78170DEE71021A023EF
:100E4000D170013BFDD12269937803F0F703774617
:100E5000937055E723691B79C5E700BF4096FF1FD4
:100E60000148FFF71FBD00BFFC87FF1F0148FFF7C8
:100E700019BD00BF6888FF1F01607047F0B42148AA
:100E80009DF8106000689DF814509DF818404FF0D0
:100E90000047C7624163C16A0029FCDA4FF0004194
:100EA000876BC1624263C26A002AFCDA4FF00042DB
:100EB000816BC2624363C36A002BFCDA4FF00043CC
:100EC000826BC3624663C36A002BFCDA4FF00043B7
:100ED000826BC3624563C36A002BFCDA4FF00043A8
:100EE000826BC3624463C36A002BFCDA4FF000429A
:100EF000FF23816BC2624363C36A002BFCDA836BFE
:100F0000F0BC7047D488FF1F2DE9F043794D87B0BE
:100F100001210646007801F015FF2846764900F0C9
:100F2000DDF929680A234FF00044FF20CC624863B2
:100F3000CA6A002AFCDA013B8A6BF7D19522019339
:100F40000093029240211A463046FFF797FF296826
:100F50004FF00042FF23CA624B63CB6A002BFCDADE
:100F60008B6BDBB2012B40F0BB8005234FF00044BC
:100F7000FF20CC624863CA6A002AFCDA013B8A6B14
:100F8000F7D10120AA2187228DE807001A464821BF
:100F90003046FFF773FF2B684FF00041FF22D96204
:100FA0005A63DA6A002AFCDA4FF00041FF22986B9C
:100FB000D9625A63DA6A002AFCDA4FF00041FF2254
:100FC000986BD9625A63DA6A002AFCDA4FF0004162
:100FD000FF22986BD9625A63DA6A002AFCDA996BAD
:100FE0004FF00040FF22D862C9B25A63DA6A002A81
:100FF000FCDA9B6B0129DBB266D1AA2B64D13F4F8F
:101000003B680493DDF8109041F287384FF00044BC
:101010003B680593059BC9EB0303434533D8002385
:1010200065220292019300931A4677213046FFF71A
:1010300025FF29680523FF20CC624863CA6A002A7D
:10104000FCDA013B8A6BF7D177220193009302927D
:10105000692140223046FFF711FF2A68FF23D4623E
:101060005363D36A002BFCDA936B13F0FF0F16D097
:101070000521FF20D4625063D36A002BFCDA0139CA
:10108000936BF7D1C4E713211D4802F045FF1D48BB
:1010900003F03AF94FF0FF3007B0BDE8F0831A498A
:1010A000144800F01BF92A6805214FF00044FF2086
:1010B000D4625063D36A002BFCDA0139936BF7D109
:1010C000084607B0BDE8F0830B21104802F024FF6A
:1010D0000C4803F019F94FF0FF3007B0BDE8F0837A
:1010E0000B210B4802F018FF064803F00DF94FF0F2
:1010F000FF30D1E7D488FF1F076001384096FF1FFB
:101100001C630000F489FF1F0320033810630000F4
:101110000463000010B4047F4160022CC26002D05E
:1011200010BC02F0FDBF836810BC1847F0B4464BFA
:10113000464A186BDC6A01791170454922790A70B8
:101140009A6A00790870002A46D05968C9688A42AC
:101150003ED82168CC8B240402F1FF3065D4C0F363
:101160000E00C883C88B80B2C882196B0968C88B0F
:10117000000452D4C2F30E00C883C88B002480B28E
:1011800012F1FF32C88218BF01229C62D96A2E4830
:1011900009680D6800F12404A54236D00068C468CF
:1011A00014F0804F0C680D6815BF24882478023530
:1011B000013544F000440D604463196B254B0979F7
:1011C0001970214912B1CA6A12791A70F0BC7047BD
:1011D000521A9A620122D9E7586B196805681E4CA9
:1011E0000A63CC62CC682D681C4E24F0804403272F
:1011F000B542CC6083F825701FD1037F4260022B7B
:10120000C2601ED0F0BC02F08BBF016890F82400D1
:10121000CC6840F000404863CFE7CC8BC2F30800B5
:1012200004F47E442043C883A7E7CC8BC0F30800B6
:1012300004F47E442043C88394E72B461146F0BC57
:1012400018478368F0BC1847D488FF1F1F800040F0
:101250001C8000401B80004000000FFF15110000A3
:1012600090E80C00F0B41C6859682568164F174EBA
:1012700029432160164D17491760D660156111602A
:10128000417A154A5C180A3194F8244053F82150E9
:1012900002EBC40149680D60017A5C1803EB81011F
:1012A000247ECD6902EBC40149680D60817A58182B
:1012B00003EB810390F83000596B02EBC002F0BCE5
:1012C00053681960704700BF01401F0001100038CB
:1012D0000110007800001F80B464000042680368B9
:1012E00005CA10B4046822430260D868840100F083
:1012F000E06205D5080900F4706021F470410143F3
:10130000D8681143814209D01A68500408D40748AC
:10131000186041F08040D96018611A6010BC7047B5
:1013200041F08042D96010BC1A61704701401F0033
:101330002DE9F04FDFF88482C0F80880DFF880A242
:101340009B4E9C4DDFF87C92C0F818A04FF06408CB
:10135000C661C0F89050C0F89C80C0F81491DFF8C6
:1013600068C2DFF868E2944CC0F894C04FF47A7A0F
:101370004FF6FF763B254FF041084FF01C094FF028
:101380007E57A0F810A1A0F87461C0F878E180261B
:101390004FF0080EC0F87C4180F8805100240125F0
:1013A00080F8828180F884914FF0430C4FF0490A15
:1013B0004FF01D084FF0190980F881C180F883A112
:1013C000C675C0F80471C0F80871C0F80C71C0F897
:1013D0005471C0F85871C0F85C7180F818E14FF092
:1013E0001B0C4FF0370AA0F86441A0F86841A0F840
:1013F0006C41A0F86E41A0F87041A0F87241A0F8CD
:101400006651A0F86A5180F88E8180F89C914FF067
:101410006B084FF0180980F889C180F89DA180F809
:10142000A3814FF0020A4FF0040880F8889180F8F9
:101430008D914FF0380C4FF00509102780F89EC1B0
:1014400080F890A14FF0030C80F897A180F892816A
:101450004FF0060A80F8998180F893914FF0400888
:1014600080F89A914FF01A0B4FF0200980F886E12E
:1014700080F88BE180F8A56180F895B180F891C182
:1014800080F898C180F894A180F89BA180F8A18190
:1014900080F8854180F88A4180F88F5180F8965114
:1014A00080F89F4180F8A04180F8A25180F88771B0
:1014B00080F88C714FF06C0A80F8A49180F8AB91A1
:1014C00080F8B6814FF007094FF06A0880F8B261E2
:1014D00080F8B36180F8B56180F8BB6180F8C2C163
:1014E00080F8A7A180F8A99180F8AA810D264FF075
:1014F000240B4FF0250C4FF0260A4FF027084FF031
:10150000690980F8BDE180F8AC6180F8ADB180F880
:10151000AEC180F8AFA180F8B18180F8B4914FF0EE
:10152000630E4FF01E0B4FF01F0C75264FF0230A71
:101530004FF070084FF0720980F8B0E180F8B7B151
:1015400080F8B8C180F8B96180F8BAA180F8BC8190
:1015500080F8BF914FF0740B4FF00C0E4FF00A0C57
:101560004FF0120A4FF016084FF00F090B2680F8C3
:10157000A65180F8A84180F8BE5180F8C44180F897
:10158000C0B180F8C1E180F8C3C180F8C5A180F87E
:10159000C68180F8C79180F8C95180F8CA7180F877
:1015A000CB4141600270447580F8C861BDE8F08F9E
:1015B000C0E1E4005CEFA64335FA8E3C801A0600D9
:1015C00040420F009A99993E0000A84179E91C41D8
:1015D0002DE9F04190F81580044615461E46B8F1F5
:1015E000000F00F0E380837D0F46002B78D0026966
:1015F000D0F81C80DFF854E2DFF854C2002102E08A
:10160000172808D001463EF8023F9CFBF3F39845AB
:1016100001F10100F4D3874BD07A53F82130190936
:1016200023F4704301F4706143F078530B4328B303
:1016300072B6D17AC80709D5DFF818E2D068DEF8AB
:10164000001001409161CEF80010D17A880709D5C9
:10165000DFF804E21069DEF800100140D161CEF835
:101660000010D17A490708D5DFF8F0E15069DEF8BB
:10167000001001401162CEF8001062B61268D16805
:10168000994207D06C4810606C49D36043F08040A9
:10169000106111600021207D01F04EFB2269E37D85
:1016A00012683B434FF00041D1625363D36A002B71
:1016B000FCDA936B002D5ED0681E56FA80F0711E26
:1016C00000254FF00046D6625563D36A002BFCDA42
:1016D000936B01F8013F88424DD023691A68F2E705
:1016E0000169D0F81880DFF864E1DFF864C102E036
:1016F000172808D003463EF8022F9CFBF2F29045D3
:1017000003F10100F4D34B4AC87A52F8233023F492
:1017100070421B0942F0785203F47063134328B3FC
:1017200072B6CA7AD00709D5DFF828E1C868DEF8B2
:10173000002002408A61CEF80020CA7A900709D5BD
:10174000DFF814E10869DEF800200240CA61CEF833
:101750000020CA7A520708D5DFF800E14869DEF8B0
:10176000002002400A62CEF8002062B60A68D16802
:10177000994287D18EE70121207D01F0DDFA2269AF
:10178000D37A83B1D80703D52D4B91691960D37AE9
:10179000990703D52B4BD1691960D37A5B0702D522
:1017A000294B126A1A600120BDE8F0810278436873
:1017B0005200012783F83B2083F85E7083F85D7048
:1017C000406803681B68984741466068FFF7B0F9B6
:1017D0003B462A4621786068FFF734FAA842E06069
:1017E00023D10028DFD00138DFF8748056FA80F763
:1017F000751E10E090F8383090F839209A4203F1C5
:10180000010600EB03010ED980F83860087E05F868
:10181000010FAF42C7D0606803685B694345E9D0F8
:101820009847C0B2F3E7FF20F1E74FF0FF30BDE883
:10183000F08100BF7063000001403F0000003F8066
:1018400000E100E004E100E008E100E03E630000A8
:10185000006CDC0280E100E084E100E088E100E06F
:10186000390700002DE9F04F4FF0010383758DB06B
:1018700000F1240390F8801115220446FFF7A8FE1A
:101880000028C0F2598194F8240094F82F6094F84D
:101890002530019694F82C8094F82E5094F82D70F1
:1018A000009543EA0023019894F8305094F833C02F
:1018B00094F831600295CDF814C094F8365094F83D
:1018C00032C0049647EA082780460098CDF818C031
:1018D000089594F835C0B4F9665194F826B094F898
:1018E00028A094F82A9094F8272094F8291094F8C6
:1018F0002BE0CDF81CC094F8346094F837C0039501
:1019000048EA00280498079D4EEA092E814602986D
:1019100049EA0029069841EA0A218246059846EAE2
:101920000526089D4AEA002045EA0C2C42EA0B22D3
:1019300000B20FFA82FB01900FFA8CF20FFA81FAD3
:1019400002920FFA8EF1039ABDF804E0A4F846E083
:101950001DB2BDF808E0B4F96431A4F84AE002FB16
:101960000BF0B4F968E1658736B203FB05000FFAA6
:1019700088F80FFA89F93FB20596A4F84860E66F37
:10198000A4F83CB00EFB0A00A4F84C10A4F8407078
:10199000A4F83EA0A4F84280A4F844900693CDF8A1
:1019A0001CE00491009703F0D7FD314603F028FEB8
:1019B000D4F8F81003F01AFDD4F8041103F020FE57
:1019C000B4F96C31B4F96A71B4F96EE120650BFBBE
:1019D00003F005FB07000AFB0E00CDF820E00B9397
:1019E00003F0BAFD314603F00BFED4F8FC1003F00F
:1019F000FDFCD4F8081103F003FEB4F97231B4F918
:101A0000702160650BFB03F0B4F974B1099305FB19
:101A100002000AFB0B000A9203F09EFD314603F020
:101A2000EFFDD4F8001103F0E1FCD4F80C1103F041
:101A3000E7FD039A009E079BD4F88050A06502FB47
:101A400008F1069A02FB061103FB091003F084FD5E
:101A5000294603F0D5FDD4F8B81003F0C7FC0B9B62
:101A60000899E06503FB08F307FB063701FB0970E3
:101A7000009603F071FD294603F0C2FDD4F8BC10B6
:101A800003F0B4FC099B009A206603FB08F613469A
:101A90000A9A02FB03670BFB097003F05DFD294600
:101AA00003F0AEFDD4F8C01003F0A0FC606601980E
:101AB00003F052FDD4F8841003F0A2FDD4F84811CD
:101AC00003F094FCD4F8541103F09AFDA066059835
:101AD00003F042FDD4F8881003F092FDD4F84C11C5
:101AE00003F084FCD4F8581103F08AFDE0660298F4
:101AF00003F032FDD4F88C1003F082FDD4F85011BD
:101B000003F074FCD4F85C1103F07AFDD4F894501F
:101B10002067049803F020FD294603F067FCD4F801
:101B2000901003F021FE294603F062FC0123606758
:101B300018460DB0BDE8F08F4FF0FF33F8E700BF57
:101B4000F8B5437D044615460E46002B00F089800B
:101B50000169D0F818C04F4FDFF860E1002202E0C1
:101B6000172808D0024637F8023F9EFBF3F39C4546
:101B700002F10100F4D3484BC87A53F8222022F432
:101B80007043120943F0785302F470621343E0B1DA
:101B900072B6CA7AD70706D54048CA6807683A407D
:101BA0008A610260CA7A900706D53D480A690768CB
:101BB0003A40CA610260CA7A570705D539484A696E
:101BC00007683A400A62026062B60A68D1689942C0
:101BD00007D0354810603549D36043F0804010612C
:101BE00011600021207D01F0A7F823691B684FF0E8
:101BF0000042DA625E63DA6A002AFCDA4FF00042E1
:101C0000996BDA625D63DA6A002AFCDA0121207DD1
:101C10009B6B01F091F82269D37A83B1D80703D581
:101C2000234B91691960D37A990703D5214BD16968
:101C30001960D37A5B0702D51F4B126A1A600A201B
:101C400001F086F8314604F1240301222046FFF713
:101C5000BFFC94F82400A84214BF4FF0FF300120CD
:101C6000F8BD027843685200012783F83B2083F8CF
:101C70005E7083F85D70406803681B689847606811
:101C8000036829461B68984739466068FEF750FF8D
:101C9000D5E700BF3E6300007063000080E100E014
:101CA00084E100E088E100E001403F0000003F8067
:101CB00000E100E004E100E008E100E0006CDC028B
:101CC00038B5002304460D468375032912D8DFE892
:101CD00001F03B28150290F88D2190F88911FFF74B
:101CE0002FFF002843DB2349D4F87C0103F088FC54
:101CF000C4F8800084F89950012038BD90F88C21F8
:101D000090F88911FFF71CFF002830DB1A49D4F83E
:101D10007C0103F075FC84F89950C4F88000012020
:101D200038BD90F88B2190F88911FFF709FF002842
:101D30001DDB1249D4F87C0103F062FC84F8995051
:101D4000C4F88000012038BD90F88A2190F88911EC
:101D5000FFF7F6FE00280ADB0949D4F87C0103F0FE
:101D60004FFC84F89950C4F88000012038BD4FF032
:101D7000FF3038BDFA007A3DFA00FA3CFA007A3CAE
:101D8000FA00FA3B38B5002304460D468375052951
:101D900015D8DFE801F018232E39440390F8942178
:101DA00090F88E11FFF7CCFE002846DB94F89B21BB
:101DB00094F895112046FFF7C3FE00283ADB84F81B
:101DC0009A50012038BD90F88F2190F88E11FFF7BE
:101DD000B7FE002831DB94F89621E9E790F89021CE
:101DE00090F88E11FFF7ACFE002826DB94F89721BF
:101DF000DEE790F8912190F88E11FFF7A1FE002800
:101E00001BDB94F89821D3E790F8922190F88E117B
:101E1000FFF796FE002810DB94F89921C8E790F8A8
:101E2000932190F88E11FFF78BFE002805DB94F8C4
:101E30009A21BDE76FF0010038BD4FF0FF3038BD8B
:101E40002DE9F04190F8B36190F8C17188461546CC
:101E500090F8AE1147EA060204461E46FFF770FEF0
:101E600000281EDB424694F8AF112046FFF768FEBB
:101E700000281ADB94F8B22194F8B1112A432046C5
:101E8000FFF75EFE002814DB012000F061FF3346FF
:101E90002A4694F883112046FFF79AFB2062BDE89A
:101EA000F0814FF0FF30BDE8F0816FF00100BDE838
:101EB000F0816FF00200BDE8F08100BF70B50D4603
:101EC000164690F8AE1190F8C1210446FFF738FE8F
:101ED00000282BDB2A4694F8AF112046FFF730FE8E
:101EE000002826DB324694F8B0112046FFF728FE82
:101EF000002821DB94F8B22194F8B11142F00102DC
:101F00002046FFF71DFE002819DB294604F12403B3
:101F100001222046FFF794FF002813DB94F82430B9
:101F2000B3420CBF01206FF0050070BD4FF0FF30D1
:101F300070BD6FF0010070BD6FF0020070BD6FF0FA
:101F4000030070BD6FF0040070BD00BF38B5002302
:101F50000D46837590F89C1113220446FFF7F0FD9F
:101F600000283DDB092D94F8C42194F8C3112046C4
:101F700026D8FFF7A3FF00282CDB642000F0E8FE42
:101F800094F8C62194F8C3112046FFF797FF002864
:101F900023DB642000F0DCFE04F12403072294F824
:101FA000C2112046FFF74CFF2A4694F89C112046A8
:101FB000FFF7C6FD002816DB84F89B50012038BDD2
:101FC000FFF77CFF002805DB642000F0C1FE94F8D9
:101FD000C521D7E76FF0010038BD6FF0020038BDB2
:101FE0004FF0FF3038BD6FF0030038BDF8B5002169
:101FF0000446FFF765FE0028C0F2968003212046C4
:10200000FFF7C0FE0028C0F2928013212046FFF7A0
:102010009DFF0028C0F29480D4F89C100022002379
:10202000C4E92823C4E92A23C4E92C23002977D052
:1020300000252046FFF716FCD4F89C0002F03CFE79
:1020400006460F46E06DD4F8B81003F0D1F902F05F
:1020500055FE32463B4602F0CFFF02460B46D4E91E
:10206000280102F0EDFCC4E92801D4F8BC10206E70
:1020700003F0BEF902F042FE32463B4602F0BCFFDE
:1020800002460B46D4E92A0102F0DAFCC4E92A012F
:10209000D4F8C010606E03F0ABF902F02FFE3246A8
:1020A0003B4602F0A9FF0B460246D4E92C0102F0A0
:1020B000C7FCC4E92C01142000F04AFED4F89C307F
:1020C0000135AB42B5D8D4E9280103F03BF9064607
:1020D000D4E92A0103F036F90546D4E92C0103F0CE
:1020E00031F9C4F8C000C4F8B860C4F8BC5094F822
:1020F00099102046FFF7E4FD00281BDB94F89A10A6
:102100002046FFF73FFE002817DB94F89B1020467F
:10211000FFF71CFF0028ACBF01206FF00500F8BDE1
:10212000002005460646DCE74FF0FF30F8BD6FF0B3
:102130000100F8BD6FF00300F8BD6FF00400F8BDBA
:102140006FF00200F8BD00BF437D70B50446002B60
:1021500000F07181002383750121007D00F0F2FD04
:10216000207D012100F0E8FD2069FFF779F894F85F
:10217000A62194F8A3112046FFF7E2FC0028C0F244
:10218000768194F8AB2194F8AA112046FFF7D8FC89
:102190000028C0F26F8194F8AC2194F8AD1120466C
:1021A000FFF7CEFC0028C0F2688194F8C42194F8AF
:1021B000C3112046FFF782FE94F8A52194F8A311DD
:1021C0002046FFF7BDFC012000F0C2FD94F8C921B4
:1021D00094F8C8112046FFF771FE94F8A62194F8F0
:1021E000A3112046FFF7ACFC0028C0F2498104F19E
:1021F00024052B46012294F8B9112046FFF7E8F98F
:102200000028C0F2208194F82430712B40F01B810B
:1022100094F8A82194F8A7112046FFF791FC002814
:10222000C0F2318194F8882194F884112046FFF798
:1022300087FC0028C0F22A814FF08341D4F878014E
:1022400003F0DEF9A34903F08FFA0326E06784F870
:10225000986094F88D2194F889112046FFF770FC5E
:102260000028C0F216819C49D4F87C0103F0C8F91B
:1022700084F89960C4F8800094F88F2194F88E1146
:102280002046FFF75DFC0028C0F2068194F89621F5
:1022900094F895112046FFF753FC0028C0F2FF8008
:1022A000002684F89A60324694F89C112046FFF785
:1022B00047FCB042C0F2F68084F89B6094F8AB21F2
:1022C00094F8AA112046FFF73BFCB042C0F2ED8023
:1022D00094F8AC2194F8AD112046FFF731FCB042E0
:1022E000C0F2E6802B46012294F8CB112046FFF77E
:1022F000A7FDB042C0F2B88094F82430482B40F0DB
:10230000B38094F8C42194F8C3112046FFF7D6FD9A
:10231000B042C0F2D080642000F01AFD94F8C721CA
:1023200094F8C3112046FFF7C9FDB042C0F2C68041
:10233000642000F00DFD2B46032294F8CA112046BC
:10234000FFF77EFD94F8240003F002F94FF0864178
:1023500003F04CF84FF06E5103F052F94FF07E51FC
:1023600003F046F85D4903F04BF95D4903F0FCF9D1
:10237000C4F8840094F8250003F0EAF84FF0864191
:1023800003F034F84FF06E5103F03AF94FF07E51FC
:1023900003F02EF8514903F033F9514903F0E4F901
:1023A000C4F8880094F8260003F0D2F84FF0864174
:1023B00003F01CF84FF06E5103F022F94FF07E51FC
:1023C00003F016F8454903F01BF9454903F0CCF931
:1023D00094F8C421C4F88C0094F8C3112046FFF788
:1023E0006DFDB0426DDB642000F0B2FC94F8C621B4
:1023F00094F8C3112046FFF761FDB04264DB64200E
:1024000000F0A6FC94F8A62194F8A3112046FFF74B
:1024100097FBB0425BDB2B46072294F8C2112046A3
:10242000FFF70EFD2046FFF7E1FDB042B4BF6FF0AD
:102430001300012070BD4068FEF7CEF9A168606806
:10244000FEF714FA93E62B46012294F8B9112046C0
:10245000FFF7BEF8002804DB94F82430732B3FF418
:10246000D7AE6FF0040070BD6FF00D0070BD4FF07F
:10247000FF3070BD6FF0010070BD6FF0020070BDE5
:102480006FF0030070BD6FF0050070BD6FF00600C7
:1024900070BD6FF0070070BD6FF0080070BD6FF089
:1024A000090070BD6FF00A0070BD6FF00B0070BDC9
:1024B0006FF00C0070BD6FF00E0070BD6FF00F007C
:1024C00070BD6FF0100070BD6FF0110070BD6FF047
:1024D000120070BD00FFFF46FA007A3D008099456A
:1024E00000F0FF4670B400224FF0FF341249046040
:1024F000FF260625A0F8406080F865508463446498
:10250000C464826080F8542080F8552080F86620EA
:1025100080F8672080F86820C0F8D820A0F8DC2078
:10252000A0F8DE2080F8562001618161016281629D
:10253000016370BC704700BFFFC99A3B70B5044689
:10254000007923680125A84083F85E5083F85D5028
:1025500083F83B00206803681B681646984720688C
:102560000368310A1B68984720680368F1B21B684A
:10257000984729462068BDE87040FEF7D9BA00BFE9
:10258000F8B5044600792368254F0125A84083F853
:102590005E5083F83B0083F85D50206803681B6839
:1025A0001646984729462068FEF7C2FA284600F0EA
:1025B000CFFB2B46022221792068FEF743FB2068DF
:1025C00003685A69BA4220D190F8383090F839201F
:1025D0009A4222D95A19034480F838201B7E206879
:1025E000026852691C02BA4224B211D190F8383004
:1025F00090F839209A4210D95A1C034480F83820A8
:10260000187E0443A4B23480F8BD90470346E6E741
:102610009047204384B23480F8BD4FF6FF74F2E750
:102620003907000010B50A22C2604FF080434FF412
:1026300080520446826003610521FFF77FFF204638
:1026400043F69F120021BDE81040FFF777BF00BF9F
:1026500010B400240022C4600171026110BC7047F4
:1026600010B5044601600846FEF7B6F82046BDE8FE
:102670001040FFF7D7BF00BF10B5028982B00446F3
:102680000521FFF75BFF20460DF106020421FFF74D
:1026900077FFBDF9060002B010BD00BF00B583B0E2
:1026A0000DF106020221FFF76BFFBDF80600C01016
:1026B000800002F051FF034902F0A2FF03B05DF871
:1026C00004FB00BF6F12833A38B50546FFF7D4FF0D
:1026D00002F042FF0446E86802F03AFF0146204655
:1026E00003F042F838BD00BF074882B00368019389
:1026F000019A114401E0994204D303680093009BBE
:102700009A42F8D902B070474096FF1F10B4104AA1
:1027100085B0A1B9136800934168009B591A31290B
:102720000DD813680293029C04F13203591A01E098
:10273000994204D313680193019B9C42F8D9136812
:102740000393039B4360012005B010BC704700BF9A
:102750004096FF1F704700BF4FF47A7000F0F8BA40
:1027600000234364436071B1074882B0036801935A
:10277000019A114401E0994204D303680093009B3D
:102780009A42F8D902B070474096FF1F30B5134CFB
:1027900085B023680393039B43600D4610480621D0
:1027A00001F0BAFB00230A2229460E4801F0BCFDC5
:1027B00006210D4801F0B0FB0A4801F0A5FD236891
:1027C0000293029A02F1320101E0994204D3236894
:1027D0000193019B9A42F8D905B030BD4096FF1F86
:1027E0005C640000F489FF1F6464000038B5037E58
:1027F0000BB9632038BD0D46044601F063FB10F0B1
:10280000FF0F01D1652038BD01F05CFB10F0FF0F18
:10281000F8D001F01BFBC0B2A0F158031E2BF3D877
:1028200001A252F823F000BFB128000009280000DF
:1028300009280000092800000928000009280000D4
:1028400009280000092800000928000009280000C4
:1028500009280000A5280000092800000928000018
:102860000928000009280000F327000009280000BB
:102870000928000009280000092800000928000094
:10288000092800000928000009280000F32700009B
:102890000928000009280000092800000928000074
:1028A000F527000020462946FFF770FF632038BD5A
:1028B00000232376632038BD70B5054682B01646E6
:1028C000C9B101230D4C037600212846FFF78EFF86
:1028D000632810D023680193019A511C2368009348
:1028E000009B9A42F0D89942F8D200212846FFF77F
:1028F0007DFF6328EED12E7602B070BD4096FF1F9B
:10290000034B00229A60DA601A615A61704700BF77
:10291000F895FF1F844641EA000313F003036DD1CD
:10292000403A41D351F8043B40F8043B51F8043B92
:1029300040F8043B51F8043B40F8043B51F8043B99
:1029400040F8043B51F8043B40F8043B51F8043B89
:1029500040F8043B51F8043B40F8043B51F8043B79
:1029600040F8043B51F8043B40F8043B51F8043B69
:1029700040F8043B51F8043B40F8043B51F8043B59
:1029800040F8043B51F8043B40F8043B51F8043B49
:1029900040F8043B51F8043B40F8043B51F8043B39
:1029A00040F8043B403ABDD2303211D351F8043BD9
:1029B00040F8043B51F8043B40F8043B51F8043B19
:1029C00040F8043B51F8043B40F8043B103AEDD288
:1029D0000C3205D351F8043B40F8043B043AF9D2D9
:1029E000043208D0D2071CBF11F8013B00F8013BAC
:1029F00001D30B8803806046704700BF082A13D3B9
:102A00008B078DD010F003038AD0C3F10403D21AD0
:102A1000DB071CBF11F8013B00F8013B80D331F804
:102A2000023B20F8023B7BE7043AD9D3013A11F884
:102A3000013B00F8013BF9D20B7803704B784370EF
:102A40008B7883706046704708B5104C08E02368A7
:102A500059050DD423681A050FD42368DB0411D45B
:102A600023685803F3D500F0D7FB23685905F1D547
:102A700001F07CFE23681A05EFD501F00DFF2368F5
:102A8000DB04EDD500F082FAEAE700BF34800440B1
:102A900008B5FFF7D9FF00BF014B10221A8070471D
:102AA00000200540704700BF094908B50B6830B1E8
:102AB0006A461844A2F58052904202D20860184635
:102AC00008BD02F0EDFE0C2303604FF0FF3008BD9F
:102AD0000C89FF1F704700BF10B40F4B53F8302014
:102AE00092F880422CB1012369B182F8803010BC89
:102AF000704703EBC0035B681A6841B922F0020219
:102B00001A6010BC704782F8003110BC704742F068
:102B100003021A6010BC7047B46400001C4A02EB48
:102B2000C00301295B6811D004291BD052F8300082
:102B3000002280F8802229B1022920D0032922D046
:102B40001A6070474FF480721A60704752F8300074
:102B50004FF4A27280F880121A601A6822F02002E4
:102B60001A60704752F830104FF4A272012081F8B9
:102B700080021A601A6842F020021A60704740F220
:102B800003121A6070474FF481721A60704700BFD9
:102B9000B4640000212848D8F8B5042A44D8DFE8F6
:102BA00002F0484B4E0345004FF410262B4B03EB2D
:102BB000C0030D465C68216811F4E06148D0284BE1
:102BC000284A2949C3F89C2104F140422748C3F808
:102BD000A411A2F59221264FC3F8A0017C29254813
:102BE000C3F8A871C3F8AC012CD9A2F594237C2BAF
:102BF0002AD9A2F596237C2B28D9A2F598237C2BE1
:102C000029D9A2F59A227C2A27D81B4872B62368B4
:102C100023F4702343F08072C4F3840116432360CD
:102C200040F82150266062B6F8BD70474FF4302658
:102C3000BCE74FF40026B9E74FF44026B6E74FF45F
:102C40002026B3E70D48E1E70D48DFE70D48DDE753
:102C5000FFF764FFB3E70C48D8E7F8BDB4640000A1
:102C60000082FF1FD187FF1F7987FF1FA587FF1FE6
:102C70004D87FF1F2187FF1FE889FF1F1089FF1F56
:102C80004889FF1F9889FF1FC889FF1F1A4B03EB54
:102C9000C00010B4426802F14043A3F592217C29A0
:102CA00023D9A3F594217C290DD9A3F596217C295C
:102CB0001FD9A3F598217C2919D9A3F59A237C2B38
:102CC00011D80E4C00E00E4C72B613680D4823F07C
:102CD0008773C2F3840123F4803343F0807313605D
:102CE00044F8210062B610BC7047074CECE7074C73
:102CF000EAE7074CE8E700BFB4640000E889FF1F7B
:102D00004889FF1FD52A00001089FF1FC889FF1FAF
:102D10009889FF1F30B4054B054D064C0022102149
:102D20001A602A602060196030BC704714D00340DC
:102D300004D0034000D00340212801D8FFF7CCBEC7
:102D4000704700BF212801D8FFF7E8BE704700BFD9
:102D50002DE9F843054672B6204F214B214A1B68E6
:102D60003C68126862B6520102D5322B88BF01342A
:102D700095B3C3F5BB331C4EDFF86490DFF8648075
:102D8000FF334FF47A72A6FB031302FB04F404EB47
:102D9000931472B6D9F800103A68D8F800E062B619
:102DA000C1F5BB33FF33A6FB03031EF0806FC4EBFA
:102DB00093134FF47A7002D0322988BF013200FB9E
:102DC0000233B3F57A7F04D3013D05D004F57A745C
:102DD000DFE701F0D7FBDCE7BDE8F8834096FF1F93
:102DE00018E000E004ED00E0ABAAAAAAF8B52D4B6C
:102DF0002D49DFF8D0E0DFF8D0C02C4E2C4D2D4C03
:102E00002D4A2E4F4FF4000018604FF0807018606C
:102E10004FF0007018604FF0806018604FF0006055
:102E200018600020086028234BF6FF71CCF80010D2
:102E3000CEF80030336013602B6023603B60B362D8
:102E40009362092245F8242CC4F8D80F05F57F6554
:102E5000C7F8D41F07F5FF2707F5FA67C6F8F83F4C
:102E60002B6006F5FF26C4F8D42F05F5FD2504F5E3
:102E7000FF24386006F2F4761148316005F5FF65ED
:102E800004F5FD642B602360026001F0C9FB19208A
:102E9000FFF75EFF00F028FF40F21310BDE8F84096
:102EA000FFF756BF08E100E00480034014800340B0
:102EB000248003402C8003401C8003403480034066
:102EC00000800B400C800340088003401C4BDFF85F
:102ED00094C01A681B49F0B542F480521A4D1A602A
:102EE000DFF884E0194F1A4E1A4C00238CF800309A
:102EF0004FF451722B701F2840F213358EF80030BA
:102F00003B70337025600A6012D819460124124ABA
:102F1000124D11701248547000212C2740269372D4
:102F20004FF4003491701174D7702E700460F0BDAE
:102F3000C0F34431C0F3471400F01F03E7E700BFBC
:102F4000348004400CC004404996FF1FB596FF1F13
:102F5000B496FF1F08C0044000C0064031E400E002
:102F600004E100E04896FF1FBC96FF1F054A064B90
:102F700010781B78C0B2DBB2984238BF4030C01A1C
:102F8000704700BF4896FF1F4996FF1F30B42B4B78
:102F90001A7994061FD52A48DA790378294901332A
:102FA0003F2B0978C8BF00238B42D2B203D0264CF6
:102FB000D9B2E2540170254A116861B1244A1278ED
:102FC000D2B2934236BFC2F140029B1A9B18272B04
:102FD000C4BF01230B70194AD378DBB2180611D491
:102FE0005A060DD5154B1B795B0609D5194B1A49A5
:102FF0001B6800220A7003B11A70104B2C22DA7081
:1030000030BC704711790906EAD5144910480C788C
:103010000178C9B28C420DD04A1C272A84BF0021F6
:103020000A460F4D054C98BFD1B2AA5CD2B2E271EC
:103030000170D5E76C21D170D2E700BF00C0064017
:103040004896FF1F4996FF1F7496FF1F4496FF1F67
:10305000B596FF1FB896FF1FB496FF1FBC96FF1FC3
:103060004C96FF1F431E032B14D872B60A4951F821
:10307000230068B170B4094C058834F81320466801
:1030800041F82360521B24F8132062B670BC7047CD
:1030900062B67047002070471897FF1F2099FF1FE6
:1030A000013803280BD872B6074B53F8203043B1D0
:1030B00000205B680130002BFBD162B67047002016
:1030C00070471846F9E700BF6C97FF1F30B472B61F
:1030D0002B4A13781D0706D52A4B196A002936D0CA
:1030E000996A002941D053781C0706D5254B196CE5
:1030F00000293ED0996C002939D09378190705D55D
:10310000204B196E002936D0996E89B1D3781B07F0
:1031100007D51C4BD3F880207AB3D3F8882011212F
:103120003AB162B6184B00221A7030BC00F068BE8B
:103130000D21154C154D227843F8315003EBC10396
:103140000830013A5860227062B630BC70470422E1
:103150000D4C0F4D217843F8325003EBC203083079
:103160004A1E5860227062B6EFE70521E1E70921A7
:10317000DFE70822ECE70C22EAE71022E8E700BFCD
:10318000FC6500000080FF1F9597FF1FC8004000EE
:1031900088004000431E032B1DD81B4A400140F00D
:1031A000100030B4104472B6184CE25C032A1BD8ED
:1031B000DFE802F00212151703220D88E25410F026
:1031C000080F14BFC823882343EA0543083103606E
:1031D000416062B630BC704708300222EDE705223C
:1031E000EBE708300422E8E7094A52F8230038B137
:1031F000084A52F82300416042F8231062B6E9E71A
:1032000042F82310034AF7E70080FF1FA497FF1F2F
:103210006C97FF1F7C97FF1F2DE9F04FDFF80CB371
:10322000DFF80CA387B044E0AB4F4FEA930807EBFD
:10323000C809013ED9F8042003F00803F6B2A2F150
:10324000080003F0FF04002B40F0028157F83830EB
:103250001B0C99B222F8081C002B00F0F0809F4B49
:1032600022F8064C42F8044C53F82620002A00F0BD
:10327000C5829B4D55F8263058609A4C45F826007B
:1032800034F81630194424F8161000F099FD00287F
:1032900000F0AD82944A954B19F0080F00F1080038
:1032A00018BF1346C9F8040047F8383008238BF8D4
:1032B00000309BF80040E4B261071AD58C4B1B78B4
:1032C000A3B18C490A7802F0FF0322B1013BDBB2C3
:1032D0000B7003B900BE88490A7802F0FF032AB1D7
:1032E000013BDBB20B70002B00F0578204238BF8FC
:1032F000003004F0080303F0FF02002B00F0CC8044
:103300009AF80030DBB21E098ED19C08DFF8C89114
:1033100059F8342009EBC401C2F38302013A496829
:103320000C2A00F28880DFE802F07C7C86868686A4
:1033300086864786868607000868704D4A68704F03
:10334000704E286081B240F28160674B6A604FF036
:10335000010E0022814249F834303A60C9F8102049
:10336000C9F8182086F800E05B4C00F2E380B1F564
:10337000D06F80F04683B1F5817F00F0FC8200F2CF
:103380008D82802900F07783822940F0FA82A98813
:1033900001F07F01042900F2F4825B485B4C890054
:1033A0000844227062700278930740F1588484F8D0
:1033B00000E04FF0020E42E3514F3A6832B3544BF3
:1033C000504E5449188834780D784028864645F088
:1033D000020828BF4FF0400E002C84F00104347026
:1033E000CEEB00000CBF8824C82409EBC80680B2CD
:1033F00085F0010544EA0E447260188049F83840AF
:1034000072440D70002800F045813A603B4B1A88E9
:10341000B2F5A06F0FD100219A7859703E4B1A7007
:1034200009E0364A108842F22102904200F03781CA
:103430002D4A49F83420394A0123137036E72A4AC5
:103440002A4B19F0080F18BF134647F838302DE7FC
:1034500000F0D6FC324A334952F82630002B00F0F7
:10346000D18158688C5D42F8260003F10802C9F842
:103470000420032C05D8DFE804F02C0229260222C0
:103480008A551A8819F0080F0CBF8823C82343EA0D
:10349000024347F8383009E7E00700F1818121064F
:1034A00000F1F281A20706D51F4A204913780220B5
:1034B000DBB213700870E30602D51C4B10221A70A1
:1034C00007B0BDE8F08F04228A55DAE705228A5555
:1034D000D7E703228A55D4E70080FF1F1897FF1F04
:1034E000C496FF1F2099FF1FC800400088004000BD
:1034F000A097FF1F2997FF1FA897FF1F8C97FF1FFB
:10350000C096FF1F2897FF1FC02007409897FF1FF6
:10351000D496FF1F9497FF1F9820074094200740E0
:103520006C97FF1FA497FF1F88200740802007404B
:103530009020074042F22100814200F02A8100F2EF
:10354000D880B1F5086F00F07682B1F5106F40F0C9
:103550001882226AB349A8780870120600F13A83EB
:10356000D9F82820B049130600F10C83D9F830208F
:10357000AD49150600F10183D9F83820AA4914068F
:1035800000F1F682D9F84020A749100600F14A83DD
:10359000D9F84820A449120600F13F83D9F85020F9
:1035A000A149130600F13483D9F858209E49150625
:1035B00000F12983D9F860209B49140600F11E838D
:1035C000D9F868209849100600F11383D9F87020C3
:1035D0009549120600F10883D9F87820924913061C
:1035E00000F1FD82D9F880208F49150600F1318362
:1035F000D9F888208C49140600F12583D9F8902049
:103600008949100600F11983D9F8982086491206D5
:1036100000F10D838548864A864901908648874D8A
:10362000874C049700230596029580460F46164660
:103630001D460394306828B1446800F0E1FB204641
:10364000002CF9D100233360029B38681A4600230E
:1036500042F8253028B1446800F0D2FB2046002C07
:10366000F9D100223A60019A98F800301146002200
:1036700041F8042B039A0191023B4FF0000122F81C
:103680001510032B00F22B81DFE813F070012501E8
:1036900070012501BEF1400F18BF0022B5E6694A4E
:1036A0000D784878157050708D78C8789570D07006
:1036B00010680D79157186284D7989795571917148
:1036C00000F09B816049614E0A78307882F00105F4
:1036D000002842F002020D700CBF8821C82149F871
:1036E000321009EBC20280F00100002130705160FD
:1036F0009EE642F22120814240F0CB81544B554C52
:103700005549A8781D682560CDF804E008700020B0
:1037100002908046844604464B490D7845F0020EDF
:1037200009EBCE030393019B002B039B5C600CBF52
:103730008824C82444EA080385F0010449F83E308F
:1037400032700C70DFF8E0E0404BDFF8FC800028BE
:1037500040F01E81BCF1400F1BD144F0020C09EB7C
:10376000CC03029CDFF8C0E05C60002A40F02681B8
:10377000020442F088029DF804304EF83C200444D4
:1037800033700D702346402803D10020334A3B603C
:103790001080334A012313704DE600F09DFCA5E52F
:1037A000214B2F4828491A614FF0020E80F800E0A3
:1037B0002C4F0A702C49196099602C4E2C4D2D4CC1
:1037C0009A610D213970FF213170DFF8B8E029705E
:1037D0002270294D294A8EF800109F27012406F8EF
:1037E000047C5D600470DA6007B0BDE8F08F244AA5
:1037F00047F8380013780133137057E543F8260073
:103800000E4D3AE58B5D032B00F2F08001A252F8D9
:1038100023F000BFAD320000AD320000D13800000F
:10382000CB380000A097FF1F0080FF1F7C97FF1F71
:103830001897FF1F6C97FF1FA497FF1FC496FF1FC9
:103840002099FF1F2899FF1F9497FF1F2897FF1F9C
:103850004096FF1F3099FF1FB897FF1FD496FF1F98
:1038600094200740C020074088004000882007407F
:103870008020074098200740D896FF1F2C97FF1FF5
:103880009597FF1F8C200740C149C24B80220D2015
:1038900008701A70A2077FF50EAE05E640F20232FC
:1038A000914240F0EE80A98801F07F01042968D898
:1038B0006A88002A65D1B648CDF804E0890008443A
:1038C000017841F00201017021E701238B55EDE4FD
:1038D00000238B55EAE44FF0010388F800300135EE
:1038E000042D06F1040607F1040708F101087FF42E
:1038F000A1AEA94CA94B2278A94D049F059E002199
:1039000029701A70130700F105816278A549DFF864
:10391000A0820A7010074FF00001C9F83010C9F8F2
:10392000381000F1E080A049A2780A700021C9F89F
:103930005010C9F858101107DFF8748200F10181A6
:10394000E2789A499A4C0A7000211207C9F870105F
:10395000C9F8781000F1B08033780193002183F02A
:103960000102C9F89010C9F89810D0E64FF0000392
:1039700088F80030B3E7A98801F07F01042940F2FC
:103980008D80834A0F2313708A4A0123137052E5F6
:1039900040287FF6E2AE44F002040EEBC401029E22
:1039A0004E60BAB19DF80410834A1970334640380E
:1039B00088F8005040334EF83420E7E69DF8043094
:1039C00033700204029B0D7042F0C80203444EF8AB
:1039D0003C20D8E69DF804101970029B774A88F8BD
:1039E0000050403840334EF83420CFE619F0080F2D
:1039F0000CBF022303238B5558E4714A0F21117029
:103A000060E6704A5468002CBBD06888B5F804E0C2
:103A100003E00C325468002CB3D013888342F8D1F1
:103A200053887345F5D1000A03280CBF94F800E0D1
:103A3000B2F808E003E0644A644C12782270E88827
:103A4000704580F03F8162490D784028844645F0FA
:103A5000020E28BF4FF0400C04EB0C0309EBCE0222
:103A6000029301235460CCEB00004FEA0C48002283
:103A70000193C8245EE6554C4FF0020E227062702E
:103A8000DDE7B1F5A06F7FF47CAF01230022019345
:103A90003DE642F221329142F7D072E76A88002A6D
:103AA0007FF46FAF3A48CDF804E08900084401780C
:103AB00021F0020101702AE600F082F9002800F0EE
:103AC000EF8008303D4AC4F88400C4F8802000F03C
:103AD00077F9002800F0DE800830374AC9F88C00FA
:103AE000C9F8882038E700F06BF9002800F0C080A2
:103AF0000830324AC8F84400C8F8402000F060F9A5
:103B0000002800F0AF8008302B4AC9F84C00C9F8F3
:103B1000482008E700F054F9002800F0CD80083074
:103B2000264AC9F82400C9F8202000F049F90028E5
:103B300000F0BC800830204AC9F82C00C9F82820C1
:103B4000E3E600F03DF9002800F09E8008301B4AB3
:103B5000C8F86400C8F8602000F032F9002800F0CE
:103B60008D800830144AC9F86C00C9F86820E7E66F
:103B7000C86B083800F044F904E5486B083800F0D9
:103B80003FF9F9E4C86A083800F03AF9EEE400BFFA
:103B9000C020074080200740FC650000C42007408B
:103BA0009597FF1FC8200740CC200740D020074032
:103BB0000080FF1F94200740C8004000880040009C
:103BC0002997FF1F00660000A097FF1F9897FF1F0F
:103BD0009497FF1F606A083800F012F9C0E4C86FBC
:103BE000083800F00DF9FDE4486F083800F008F9D6
:103BF000F2E4C86E083800F003F9E7E4486E0838CC
:103C000000F0FEF8DCE4C86D083800F0F9F8D1E403
:103C1000486D083800F0F4F8C6E4C86C083800F0C5
:103C2000EFF8BBE4486C083800F0EAF8B0E4D1F8EB
:103C30009C00083800F0E4F8ECE4D1F8940008386F
:103C400000F0DEF8E0E4D1F88C00083800F0D8F895
:103C5000D4E4D1F88400083800F0D2F8C8E44FF07A
:103C6000020EECE62A78C9F8480001322A705AE6BA
:103C70002A78C8F8400001322A703FE72A78C9F84C
:103C8000680001322A705BE62A78C8F860000132C9
:103C90002A7061E72A78C9F8880001322A705BE649
:103CA0002A78C4F8800001322A7010E72A78C9F80F
:103CB000280001322A7028E62A78C9F8200001324B
:103CC0002A7032E7BEF1400FF44628BF4FF0400C97
:103CD00004EB0C0302930123CCEB0E004FEA0C48DB
:103CE0000022019318E500BFF8B500F05BFE294BF8
:103CF00029482A4C2A4F2B4DDFF8BCC0DFF8BCE026
:103D0000294E00221A605A609A60DA601A615A617C
:103D10009A61DA611A625A629A62DA621A635A63C3
:103D20009A63DA631A645A649A64DA641A655A65A3
:103D30009A65DA651A665A669A66DA661A675A6783
:103D40009A67DA67C3F880200168C3F8842041F4D9
:103D500080210160C3F307212170C3F30740134999
:103D600038701B0E2B70FF238CF80030104D8EF82E
:103D7000003010480B700123337084F864207026E3
:103D80004FF40074102207F82C3C2E70046081F868
:103D9000F820F8BD0080FF1F348004409C200740BD
:103DA000B0200740B420074094200740102007406F
:103DB00049E400E008E100E0802007408820074057
:103DC00072B60D480268B2FA82F30B2B10DC4FF08A
:103DD0000041D94022EA0102026062B6074803EBC3
:103DE000C303DB00C2180021C15010465160704768
:103DF00062B60020704700BFF089FF1FBC83FF1F21
:103E00000D4B0E4AC31AA2FB03231B090B2B0CD824
:103E10000B4A127852B972B60A484FF00041026854
:103E200021FA03F31A43026062B67047064A127819
:103E3000002AF0D0FFF74AB9BC83FF1F398EE33860
:103E40009597FF1FF089FF1FA097FF1F38B50F4DF3
:103E5000286878B143880288C118013393420C7AEC
:103E600002D24380204638BDFFF7CAFF0023204618
:103E70002B6038BD064B1B782BB10320FFF7F2F8FF
:103E800028600028E6D14FF0FF3038BDB497FF1FFF
:103E9000A097FF1F10B5094C206818B1438818443B
:103EA000007A10BD064B1B782BB10320FFF7DAF820
:103EB00020600028F2D14FF0FF3010BDB497FF1FF3
:103EC000A097FF1F044B054A1B6890881BB11A88F6
:103ED0005B88D31A18447047B497FF1F2099FF1FBF
:103EE0000B4B1B789BB110B50A4C206848B1FFF70B
:103EF00087FF002303202360FFF7B4F830B1FFF7FA
:103F00007FFF0320FFF7AEF80028F8D110BD7047FF
:103F1000A097FF1FB497FF1F2DE9F04FDFF8F8902F
:103F200083B0012289F80020019169B3DFF8EC80A9
:103F3000364F019E8346D8F80000B0B3344D448814
:103F4000C4F14001B14228BF314604EB010E00220A
:103F50001FFA8EFE2A70761AA0F802E000F108021D
:103F600051B1013C224459441BF8014B02F8014F66
:103F70008B45F9D1B0F802E0BEF13F0F0BD8254ACE
:103F800005211170002ED6D10198002389F8003048
:103F900003B0BDE8F08F4022028001460420FFF705
:103FA000F9F80022C8F80020E9E73A782AB3184D5A
:103FB0004AF2F9244FF0010A07E0013C16D02A78B2
:103FC000A2B900F0DFFA3A78BAB10420FFF768F836
:103FD0000728F2D889F800A0FFF7F2FEC8F8000021
:103FE0000028ACD10C4B013C1870E8D101234FF0F4
:103FF000FF302B7003B0BDE8F08F00234FF0FF308F
:1040000089F8003003B0BDE8F08F00BFA097FF1F14
:10401000B097FF1FA897FF1FA997FF1FAC97FF1F1F
:1040200000B583B002AB012103F8010D1846FFF77C
:1040300073FF03B05DF804FB38B50E4D0E4C2868D5
:104040000123237028B1408800232370C0F1400071
:1040500038BD0A4B1B7813B90020207038BD0420EE
:10406000FFF71EF80728F7D8FFF7AAFE28600028F8
:10407000E9D1F1E7AC97FF1FA997FF1FA097FF1F9A
:10408000F8B5114B1B788BB1104E114D34680127D8
:104090002F7064B10F4A6388002717702146238070
:1040A0000420FFF777F8376000232B70F8BDFFF787
:1040B00087FE084B28B1014604201C70FFF76AF800
:1040C000F2E71F70F0E700BFA097FF1FAC97FF1F3C
:1040D000A997FF1FA897FF1F38B50E4B1B7873B920
:1040E0000D4C216861B103F0FF054B880B80042063
:1040F000FFF750F8256038BD084B01221A7038BD13
:10410000FFF75EFE0028F7D00146BDE838400420E6
:10411000FFF740B8A997FF1FAC97FF1FA897FF1F95
:1041200010B4EFF3108272B6437F33B9017F0129D7
:1041300007D003290FD00123437702B962B610BC20
:104140007047124C2168A1B1114943610B6883612A
:1041500008605861EFE70F4C216881B10E49436157
:104160000B688361086058610C4B4FF080511960F7
:10417000E1E7074B4161816120601860DBE7064B96
:104180004161816120601860EEE700BFCC97FF1F9E
:10419000C897FF1FBC97FF1FC097FF1F04ED00E0EB
:1041A00070B5EFF3108272B60C4C206880B10C4EE3
:1041B00000254369236073B19D6102B962B64577FA
:1041C00083689847EFF3108272B620680028F0D118
:1041D00002B962B670BD3360EFE700BFBC97FF1F46
:1041E000C097FF1FFFF7DCBF184A30B41468002CDB
:1041F00027D0036821688B420ED2CB1A002184603D
:10420000C1602360E06010600223037530BC70471A
:1042100011688B42144608D3A2685B1A0360002A17
:10422000F6D18260C460A060EEE7D268C2608460AC
:10423000E060C568CB1A0222A8602360027530BC1A
:1042400070478460C4601060DEE700BFC497FF1F42
:10425000F8B5224E34682CB32368002B3AD1204F96
:104260001D4604E03468ECB12368002B32D1A3680A
:1042700003B1DD6020693360036825751B68BB42AC
:1042800021D1037F4560022BC46020D0FFF748FF97
:104290006368002BE6D023602046FFF7A5FF346853
:1042A000002CE1D1EFF3108372B60E4A00211068A2
:1042B000116003B962B628B18468FFF795FF204604
:1042C0000028F9D1F8BD224600219847E0E783682D
:1042D0009847DDE7013B2360E4E700BFC497FF1F79
:1042E00015110000D497FF1F024A136801331360B1
:1042F000FFF7AEBF4096FF1F08B5FCF7B7F8FCF715
:1043000043F900F03FF9FAE700B5064A036812885E
:104310005B6883B001A9ADF804200222984703B07E
:104320005DF804FBC4650000F0B507468BB0002AB9
:1043300033D0012A08BF0A2251B3212400E0F4B28D
:10434000B1FBF2F502FB1511C8B2092900F13001E9
:1043500098BFC8B20AA988BF3730214488BFC0B20D
:1043600001F8240C661E2946002DE8D133B1013C2A
:10437000E4B20AAB23442D2203F8242C3B6801AAA3
:1043800011195B683846C4F1220298470BB0F0BDA2
:1043900030228DF825202124E8E70368C9B21B6884
:1043A00098470BB0F0BD00BF2DE9F04385B08046C3
:1043B0001946104616461F469DF8305000F08CFFF7
:1043C000002840F0B18027F00044304621464FF0ED
:1043D000FF32594B00F080FF98B9304621464FF02C
:1043E000FF32554B00F05AFF58B9D8F80030534906
:1043F0005B684046032298478146484605B0BDE8C1
:10440000F083304639464FF060424D4B00F05AFF82
:10441000002870D1304639464FF06042494B00F0D9
:1044200033FF002867D1304639460022002300F0D0
:104430002BFF002863D18146002D65D0424B00241C
:104440000022104619463AA3D3E9002300F0AAFC43
:1044500001340B46E1B28D420246F2D8304639466D
:1044600000F0EEFA0F46064600F04CFF044600F05E
:1044700023FC02460B463046394600F0DFFA4B4635
:1044800006460F460A2221464046FFF74DFF0F2DF4
:1044900028BF0F2501352E238146EDB28DF800305F
:1044A00001240022294B3046394600F07BFC0F46A0
:1044B000064600F027FF04AB2344C0B200F13002EF
:1044C00003F8102C00F008FC02460B463046394633
:1044D00000F0B4FA0134E4B2AC4206460F46E0D133
:1044E000D8F8003022465B684046694698474846FF
:1044F00005B0BDE8F083D8F80030154978E707F13A
:1045000000474FF0010997E700220F4B304639462C
:1045100000F096FA00F0F6FE4B4601460A224046AD
:10452000FFF702FF814668E7D8F8003009495FE7E6
:10453000000000A09999B93FFFFFEF7FD065000010
:10454000FFFFEF41FFFFEFC10000E03F000024400C
:10455000CC650000C8650000FFF7C2BCFFF79ABC3D
:10456000FFF774BCFFF7AEBCFFF78ABDFFF764BD71
:1045700008461146FFF7D0BC0846FFF751BD00BF03
:10458000704700BF38B5224C237803B138BD0123F2
:104590002370FFF797FC70BB00F0D8F840BB00F029
:1045A0006BF910BBFEF7E2FCE0B900232370EFF3D8
:1045B0000583002BEAD1EFF3108172B6154B186812
:1045C000E0B1154C2278CAB945691D6001232370FA
:1045D000C5B1AA6101B962B60025457783689847DD
:1045E0002570D3E700F024FADFE700F01FFAD9E7DF
:1045F00000F01AFAD3E7FFF7C3FFCDE70029C5D1D2
:1046000062B638BD054B1D600029E5D1E3E700BF68
:10461000D897FF1FCC97FF1FD097FF1FC897FF1F8A
:1046200030B42948294A2A4B2A4D6024E1210470DC
:1046300011701B78284C082B30D00A2B27482849AA
:1046400037D00C2B0CBF35223D2212232A60236069
:1046500002600B60234B24491B78244ABBB1012321
:104660000B601360224B23491B78234A012B26D968
:10467000042B0FD9082B1ED9102B94BF8623872318
:104680000B6013601D4B01221A7030BC70470B6029
:104690001360E7E784230B601360F3E700F58E20D7
:1046A0000F490830012213232A60236002600B6047
:1046B000D0E73922F7E785230B601360E2E7802318
:1046C0000B601360DEE700BF004007400140074079
:1046D000048AFF1F08B003400CB0034008B00B4031
:1046E0000CB00B40DA97FF1F20B0034020B00B4006
:1046F000058AFF1F24B0034024B00B40D997FF1F49
:10470000F0B44D1E2E46002400E00134B0FBF2F35D
:1047100002FB1300092800F130078ABF3730F8B2D6
:10472000C0B206F8010F1846002BEED10A195370DB
:104730004CB1107815F8016F28700133E01A8342EC
:1047400002F80169F5DB0846F0BC7047054A064BE4
:1047500010781B78C0B2DBB2984238BF4030C01A24
:10476000704700BFE097FF1FE197FF1FF0B4384B81
:104770001A7912F0300F2CD072B6997D01F0FF0239
:1047800000293DD062B6334F334938780D78334E27
:104790001C46C0B2EDB2431C402BE17928BF002378
:1047A000AB4202F1FF32C9B21CBFF154184612F0FD
:1047B000FF02F0D12A4B1B68C2B23A704BB1A8423B
:1047C00036BFC5F14005401B40192728C4BF012250
:1047D0001A701F49CA78D2B2150616D452060DD5E2
:1047E0001B4B1B795B0609D51E4B1F491B6800221A
:1047F0000A7003B11A70164B3C22DA70F0BC704795
:104800004022D9795A7462B6E3E70B791C06E5D5E4
:10481000164B174E1C783378E4B2DBB29C420ED0B4
:10482000144D01E0A3420AD00133402B28BF0023DE
:104830000879E85CC0B2C871087D0728F2D9DBB2FC
:10484000034933700B79180644BF7C23CB70C5E74E
:1048500000A00640E097FF1FE197FF1F2498FF1F6D
:10486000DC97FF1F6898FF1F6498FF1F6C98FF1F5D
:104870006598FF1FE497FF1F054A064B10781B78C9
:10488000C0B2DBB2984238BF4030C01A704700BF98
:10489000E098FF1F7598FF1FF0B4384B1A7912F09B
:1048A000300F2CD072B6997D01F0FF0200293DD067
:1048B00062B6334F334938780D78334E1C46C0B258
:1048C000EDB2431C402BE17928BF0023AB4202F13B
:1048D000FF32C9B21CBFF154184612F0FF02F0D1EA
:1048E0002A4B1B68C2B23A704BB1A84236BFC5F121
:1048F0004005401B40192728C4BF01221A701F49D8
:10490000CA78D2B2150616D452060DD51B4B1B79A8
:104910005B0609D51E4B1F491B6800220A7003B1B4
:104920001A70164B3C22DA70F0BC70474022D979DD
:104930005A7462B6E3E70B791C06E5D5164B174EA1
:104940001C783378E4B2DBB29C420ED0144D01E007
:10495000A3420AD00133282B28BF00230879E85C42
:10496000C0B2C871087D0728F2D9DBB203493370A1
:104970000B79180644BF7C23CB70C5E700B0064016
:10498000E098FF1F7598FF1FA098FF1F7098FF1FEA
:10499000E498FF1F7498FF1FE898FF1FE198FF1F1E
:1049A0007898FF1F70B584B072B6194B194D1A482C
:1049B000702241260F2480211A702E701A4604702E
:1049C000197013781B06FCD5144B186862B6144B8B
:1049D000144C984298BF00EB800001A998BF40009A
:1049E0000A22FFF78DFE01A92046002311F8012BB2
:1049F00001333AB10A2B20F8022FF7D11623237086
:104A000004B070BD5B00DBB2237004B070BD00BFAA
:104A10000000024007000240060002400800024079
:104A20007F969800948AFF1F704700BF704700BFB1
:104A3000704700BF81F0004102E000BF83F00043F7
:104A400030B54FEA41044FEA430594EA050F08BF29
:104A500090EA020F1FBF54EA000C55EA020C7FEAED
:104A6000645C7FEA655C00F0E2804FEA5454D4EB6A
:104A70005555B8BF6D420CDD2C4480EA020281EA34
:104A8000030382EA000083EA010180EA020281EA6C
:104A90000303362D88BF30BD11F0004F4FEA0131BE
:104AA0004FF4801C4CEA113102D0404261EB4101CD
:104AB00013F0004F4FEA03334CEA133302D0524253
:104AC00063EB430394EA050F00F0A780A4F101040F
:104AD000D5F1200E0DDB02FA0EFC22FA05F2801849
:104AE00041F1000103FA0EF2801843FA05F359412F
:104AF0000EE0A5F120050EF1200E012A03FA0EFCAE
:104B000028BF4CF0020C43FA05F3C01851EBE371D7
:104B100001F0004507D54FF0000EDCF1000C7EEBF4
:104B200000006EEB0101B1F5801F1BD3B1F5001F32
:104B30000CD349085FEA30004FEA3C0C04F1010451
:104B40004FEA445212F5800F80F09A80BCF1004F7A
:104B500008BF5FEA500C50F1000041EB045141EAFC
:104B6000050130BD5FEA4C0C404141EB010111F4FD
:104B7000801FA4F10104E9D191F0000F04BF0146A8
:104B80000020B1FA81F308BF2033A3F10B03B3F186
:104B900020020CDA0C3208DD02F1140CC2F10C0216
:104BA00001FA0CF021FA02F10CE002F11402D8BF74
:104BB000C2F1200C01FA02F120FA0CFCDCBF41EA40
:104BC0000C019040E41AA2BF01EB0451294330BD0F
:104BD0006FEA04041F3C1CDA0C340EDC04F11404EC
:104BE000C4F1200220FA04F001FA02F340EA0300C3
:104BF00021FA04F345EA030130BDC4F10C04C4F109
:104C0000200220FA02F001FA04F340EA03002946E8
:104C100030BD21FA04F0294630BD94F0000F83F432
:104C2000801306BF81F480110134013D4EE77FEA15
:104C3000645C18BF7FEA655C29D094EA050F08BF61
:104C400090EA020F05D054EA000C04BF1946104642
:104C500030BD91EA030F1EBF0021002030BD5FEA86
:104C6000545C05D14000494128BF41F0004130BDAE
:104C700014F580043CBF01F5801130BD01F0004502
:104C800045F0FE4141F470014FF0000030BD7FEA75
:104C9000645C1ABF194610467FEA655C1CBF0B4670
:104CA000024650EA013406BF52EA033591EA030F87
:104CB00041F4002130BD00BF90F0000F04BF00217F
:104CC000704730B54FF4806404F132044FF00005B2
:104CD0004FF0000150E700BF90F0000F04BF00212B
:104CE000704730B54FF4806404F1320410F0004591
:104CF00048BF40424FF000013EE700BF42004FEA8C
:104D0000E2014FEA31014FEA02701FBF12F07F4308
:104D100093F07F4F81F06051704792F0000F14BF05
:104D200093F07F4F704730B54FF4607401F0004549
:104D300021F0004120E700BF50EA010208BF7047A0
:104D400030B54FF000050AE050EA010208BF704795
:104D500030B511F0004502D5404261EB41014FF4FE
:104D6000806404F132045FEA915C3FF4DCAE4FF002
:104D700003025FEADC0C18BF03325FEADC0C18BFE9
:104D8000033202EBDC02C2F1200300FA03FC20FA3A
:104D900002F001FA03FE40EA0E0021FA02F1144487
:104DA000C1E600BF70B54FF0FF0C4CF4E06C1CEA9C
:104DB00011541DBF1CEA135594EA0C0F95EA0C0F11
:104DC00000F0DEF82C4481EA030621EA4C5123EA84
:104DD0004C5350EA013518BF52EA033541F48011B3
:104DE00043F4801338D0A0FB02CE4FF00005E1FB66
:104DF00002E506F00042E0FB03E54FF00006E1FBB0
:104E000003569CF0000F18BF4EF0010EA4F1FF04F2
:104E1000B6F5007F64F5407404D25FEA4E0E6D4132
:104E200046EB060642EAC62141EA55514FEAC52043
:104E300040EA5E504FEACE2EB4F1FD0C88BFBCF5BF
:104E4000E06F1ED8BEF1004F08BF5FEA500E50F170
:104E5000000041EB045170BD06F0004646EA010136
:104E600040EA020081EA0301B4EB5C04C2BFD4EB68
:104E70000C0541EA045170BD41F480114FF0000E61
:104E8000013C00F3AB8014F1360FDEBF002001F0CF
:104E9000004170BDC4F10004203C35DA0C341BDC49
:104EA00004F11404C4F1200500FA05F320FA04F01B
:104EB00001FA05F240EA020001F0004221F000414F
:104EC00010EBD37021FA04F642EB06015EEA430EC2
:104ED00008BF20EAD37070BDC4F10C04C4F12005F2
:104EE00000FA04F320FA05F001FA04F240EA0200A5
:104EF00001F0004110EBD37041F100015EEA430E76
:104F000008BF20EAD37070BDC4F1200500FA05F295
:104F10004EEA020E20FA04F301FA05F243EA020314
:104F200021FA04F001F0004121FA04F220EA020023
:104F300000EBD3705EEA430E08BF20EAD37070BD69
:104F400094F0000F0FD101F00046400041EB010149
:104F500011F4801F08BF013CF7D041EA060195F02B
:104F6000000F18BF704703F00046520043EB0303E5
:104F700013F4801F08BF013DF7D043EA06037047D2
:104F800094EA0C0F0CEA135518BF95EA0C0F0CD0DD
:104F900050EA410618BF52EA4306D1D181EA030123
:104FA00001F000414FF0000070BD50EA410606BF1D
:104FB0001046194652EA430619D094EA0C0F02D162
:104FC00050EA013613D195EA0C0F05D152EA0336A7
:104FD0001CBF104619460AD181EA030101F00041C5
:104FE00041F0FE4141F470014FF0000070BD41F00E
:104FF000FE4141F4780170BD70B54FF0FF0C4CF4E8
:10500000E06C1CEA11541DBF1CEA135594EA0C0F06
:1050100095EA0C0F00F0A7F8A4EB050481EA030E53
:1050200052EA03354FEA013100F088804FEA03333A
:105030004FF0805545EA131343EA12634FEA022208
:1050400045EA111545EA10654FEA00260EF00041C9
:105050009D4208BF964244F1FD0404F5407402D21B
:105060005B084FEA3202B61A65EB03055B084FEAAC
:1050700032024FF480104FF4002CB6EB020E75EBA9
:10508000030E22BFB61A754640EA0C005B084FEAD1
:105090003202B6EB020E75EB030E22BFB61A75464E
:1050A00040EA5C005B084FEA3202B6EB020E75EB99
:1050B000030E22BFB61A754640EA9C005B084FEA11
:1050C0003202B6EB020E75EB030E22BFB61A75461E
:1050D00040EADC0055EA060E18D04FEA051545EA0D
:1050E00016754FEA06164FEAC30343EA52734FEAB6
:1050F000C2025FEA1C1CC0D111F4801F0BD141EA2F
:1051000000014FF000004FF0004CB6E711F4801F93
:1051100004BF01430020B4F1FD0C88BFBCF5E06F73
:105120003FF6AFAEB5EB030C04BFB6EB020C5FEA83
:10513000500C50F1000041EB045170BD0EF0004ED8
:105140004EEA113114EB5C04C2BFD4EB0C0541EA0A
:10515000045170BD41F480114FF0000E013C90E607
:1051600045EA060E8DE60CEA135594EA0C0F08BFCB
:1051700095EA0C0F3FF43BAF94EA0C0F0AD150EACA
:1051800001347FF434AF95EA0C0F7FF425AF10465D
:1051900019462CE795EA0C0F06D152EA03353FF485
:1051A000FDAE1046194622E750EA410618BF52EA02
:1051B00043067FF4C5AE50EA41047FF40DAF52EAD6
:1051C00043057FF4EBAE12E74FF0FF3C06E000BF73
:1051D0004FF0010C02E000BF4FF0010C4DF804CD80
:1051E0004FEA410C7FEA6C5C4FEA430C18BF7FEA40
:1051F0006C5C1BD001B050EA410C0CBF52EA430C6E
:1052000091EA030F02BF90EA020F0020704710F1ED
:10521000000F91EA030F58BF994208BF90422CBF7C
:10522000D8176FEAE37040F0010070474FEA410C75
:105230007FEA6C5C02D150EA013C07D14FEA430C93
:105240007FEA6C5CD6D152EA033CD3D05DF8040B04
:10525000704700BF8446104662468C461946634636
:1052600000E000BF01B5FFF7B7FF002848BF10F10D
:10527000000F01BD4DF808EDFFF7F4FF0CBF012052
:1052800000205DF808FB00BF4DF808EDFFF7EAFFCE
:1052900034BF012000205DF808FB00BF4DF808ED89
:1052A000FFF7E0FF94BF012000205DF808FB00BF7E
:1052B0004DF808EDFFF7CEFF94BF012000205DF808
:1052C00008FB00BF4DF808EDFFF7C4FF34BF012015
:1052D00000205DF808FB00BF4FEA410C7FEA6C5CE0
:1052E00002D150EA013C0AD14FEA430C7FEA6C5CE0
:1052F00002D152EA033C02D14FF0000070474FF058
:10530000010070474A0011D212F5001211D20DD5DA
:105310006FF47873B3EB62520ED44FEAC12343F0BB
:10532000004343EA505323FA02F070474FF0000065
:10533000704750EA013002D14FF0FF3070474FF014
:10534000000070474FEA4102B2F1E04324BFB3F5D9
:10535000001CDCF1FE5C0DD901F0004C4FEAC002EC
:105360004CEA5070B2F1004F40EB830008BF20F0D0
:105370000100704711F0804F21D113F13872BCBF8A
:1053800001F00040704741F480114FEA5252C2F1DF
:105390001802C2F1200C10FA0CF320FA02F018BF28
:1053A00040F001004FEAC1234FEAD32303FA0CFC7B
:1053B00040EA0C0023FA02F34FEA4303CCE77FEA0A
:1053C000625307D150EA01331EBF4FF0FE4040F454
:1053D0004000704701F0004040F0FE4040F4000003
:1053E000704700BF80F0004002E000BF81F0004144
:1053F00042001FBF5FEA410392EA030F7FEA226C7B
:105400007FEA236C6AD04FEA1262D2EB1363C1BF0A
:10541000D218414048404140B8BF5B42192B88BF79
:10542000704710F0004F40F4000020F07F4018BF9C
:10543000404211F0004F41F4000121F07F4118BFBC
:10544000494292EA030F3FD0A2F1010241FA03FC64
:1054500010EB0C00C3F1200301FA03F100F000434C
:1054600002D5494260EB4000B0F5000F13D3B0F114
:10547000807F06D340084FEA310102F10102FE2A83
:1054800051D2B1F1004F40EBC25008BF20F00100F3
:1054900040EA03007047490040EB000010F4000FA1
:1054A000A2F10102EDD1B0FA80FCACF1080CB2EB34
:1054B0000C0200FA0CF0AABF00EBC2505242184393
:1054C000BCBFD0401843704792F0000F81F4000138
:1054D00006BF80F400000132013BB5E74FEA41030B
:1054E0007FEA226C18BF7FEA236C21D092EA030F77
:1054F00004D092F0000F08BF0846704790EA010FF1
:105500001CBF0020704712F07F4F04D1400028BF1D
:1055100040F00040704712F100723CBF00F50000FF
:10552000704700F0004343F0FE4040F40000704735
:105530007FEA226216BF08467FEA236301464202E1
:1055400006BF5FEA412390EA010F40F480007047F4
:105550004FF0000304E000BF10F0004348BF40429A
:105560005FEA000C08BF704743F0964301464FF0D6
:1055700000001CE050EA010208BF70474FF0000332
:105580000AE000BF50EA010208BF704711F0004373
:1055900002D5404261EB41015FEA010C02BF844643
:1055A0000146002043F0B64308BFA3F18053A3F5A2
:1055B0000003BCFA8CF2083AA3EBC25310DB01FAE9
:1055C00002FC634400FA02FCC2F12002BCF1004F6D
:1055D00020FA02F243EB020008BF20F001007047FE
:1055E00002F1200201FA02FCC2F1200250EA4C0052
:1055F00021FA02F243EB020008BF20EADC70704798
:105600004FF0FF0C1CEAD0521EBF1CEAD15392EAA5
:105610000C0F93EA0C0F6FD01A4480EA010C400281
:1056200018BF5FEA41211ED04FF0006343EA5010DB
:1056300043EA5111A0FB01310CF00040B1F5000F1D
:105640003EBF490041EAD3715B0040EA010062F1CC
:105650007F02FD2A1DD8B3F1004F40EBC25008BFB6
:1056600020F00100704790F0000F0CF0004C08BFD4
:1056700049024CEA502040EA51207F3AC2BFD2F1A1
:10568000FF0340EAC250704740F400004FF00003AF
:10569000013A5DDC12F1190FDCBF00F000407047E9
:1056A000C2F10002410021FA02F1C2F1200200FA27
:1056B00002FC5FEA310040F1000053EA4C0308BFEE
:1056C00020EADC70704792F0000F00F0004C02BF3F
:1056D000400010F4000F013AF9D040EA0C0093F0BA
:1056E000000F01F0004C02BF490011F4000F013B14
:1056F000F9D041EA0C018FE70CEAD15392EA0C0F82
:1057000018BF93EA0C0F0AD030F0004C18BF31F0EC
:10571000004CD8D180EA010000F00040704790F0C2
:10572000000F17BF90F0004F084691F0000F91F066
:10573000004F14D092EA0C0F01D142020FD193EA2C
:105740000C0F03D14B0218BF084608D180EA0100B4
:1057500000F0004040F0FE4040F40000704740F090
:10576000FE4040F4400070474FF0FF0C1CEAD0525E
:105770001EBF1CEAD15392EA0C0F93EA0C0F69D0BA
:10578000A2EB030280EA010C49024FEA402037D025
:105790004FF0805343EA111143EA10130CF000401C
:1057A0008B4238BF5B0042F17D024FF4000C8B420C
:1057B00024BF5B1A40EA0C00B3EB510F24BFA3EBEC
:1057C000510340EA5C00B3EB910F24BFA3EB9103BC
:1057D00040EA9C00B3EBD10F24BFA3EBD10340EA16
:1057E000DC001B0118BF5FEA1C1CE0D1FD2A3FF65C
:1057F00050AF8B4240EBC25008BF20F00100704711
:105800000CF0004C4CEA50207F32C2BFD2F1FF03B3
:1058100040EAC250704740F400004FF00003013AE4
:1058200037E792F0000F00F0004C02BF400010F488
:10583000000F013AF9D040EA0C0093F0000F01F09C
:10584000004C02BF490011F4000F013BF9D041EABE
:105850000C0195E70CEAD15392EA0C0F08D14202F1
:105860007FF47DAF93EA0C0F7FF470AF084676E7C4
:1058700093EA0C0F04D14B023FF44CAF08466EE79D
:1058800030F0004C18BF31F0004CCAD130F000426B
:105890007FF45CAF31F000437FF43CAF5FE700BFC3
:1058A000014B1868704700BFD88EFF1F70B50F4EB0
:1058B0000F4D761BB61018BF002405D0013455F8E3
:1058C000043B9847A642F9D10A4E0B4D761B00F0D7
:1058D000C3FEB61018BF002406D0013455F8043BAF
:1058E0009847A642F9D170BD70BD00BF6466000044
:1058F000646600007466000064660000024B0146A6
:10590000186800F003B800BFD88EFF1F2DE9F04FD4
:1059100001F10B05162D83B0064640F29F8035F04D
:10592000070500F1BF80A94200F2BC8000F0A6FA92
:10593000B5F5FC7FC0F09C826B0A00F0BA80042BA6
:1059400000F28381A80900F1390E4FEA4E03383086
:10595000C44F07EB8303A3F108015C68A14207D1A0
:10596000ACE0002A80F2AC80E468A14200F0A6809E
:10597000636823F003035A1B0F2AF2DDB9493C691F
:1059800001F1080E744500F0B381636823F003034E
:105990005A1B0F2A00F39981002AC1F814E0C1F8BC
:1059A00010E080F29E80B3F5007F80F06781DB0815
:1059B00003F1010C01229B1002FA03F34A6851F82B
:1059C0003C80C4F8088001EBCC091A43A9F1080314
:1059D000E3604A6041F83C40C8F80C408310012461
:1059E0009C40944200F28A80144206D120F00300C9
:1059F0006400144200F10400FAD007EBC009CC4661
:105A00008046DCF80C108C4507D173E1002A80F247
:105A10008181C9688C4500F06D814B6823F00303D8
:105A20005A1B0F2AF2DD0C46D1F80CC054F8088F2F
:105A30004B1945F001054D6042F00101C8F80CC05A
:105A40003046CCF808807B613B61C3F80CE0C3F8BA
:105A500008E059609A5000F013FA1FE0102921D88D
:105A600000F00CFA1025062302207E4F07EB83037B
:105A7000A3F108025C68944200F045816368E16824
:105A8000A56823F00303234430465A68E96042F0D6
:105A900001028D605A6000F0F3F90834204603B02B
:105AA000BDE8F08F00240C232046336003B0BDE82E
:105AB000F08F80234FF0400E3F2049E770465DE7AE
:105AC0002344E1685A68A56842F00102E960304663
:105AD0008D605A6000F0D4F90834204603B0BDE868
